{"abi":[{"type":"constructor","inputs":[],"stateMutability":"nonpayable"},{"type":"function","name":"getPoolInfo","inputs":[{"name":"pool","type":"address","internalType":"address"}],"outputs":[{"name":"sqrtPriceX96","type":"uint160","internalType":"uint160"},{"name":"token0","type":"address","internalType":"address"},{"name":"token1","type":"address","internalType":"address"}],"stateMutability":"view"},{"type":"function","name":"owner","inputs":[],"outputs":[{"name":"","type":"address","internalType":"address"}],"stateMutability":"view"},{"type":"function","name":"renounceOwnership","inputs":[],"outputs":[],"stateMutability":"nonpayable"},{"type":"function","name":"transferOwnership","inputs":[{"name":"newOwner","type":"address","internalType":"address"}],"outputs":[],"stateMutability":"nonpayable"},{"type":"event","name":"OwnershipTransferred","inputs":[{"name":"previousOwner","type":"address","indexed":true,"internalType":"address"},{"name":"newOwner","type":"address","indexed":true,"internalType":"address"}],"anonymous":false},{"type":"error","name":"OwnableInvalidOwner","inputs":[{"name":"owner","type":"address","internalType":"address"}]},{"type":"error","name":"OwnableUnauthorizedAccount","inputs":[{"name":"account","type":"address","internalType":"address"}]}],"bytecode":{"object":"0x6080604052348015600f57600080fd5b503380603557604051631e4fbdf760e01b81526000600482015260240160405180910390fd5b603c816041565b506091565b600080546001600160a01b038381166001600160a01b0319831681178455604051919092169283917f8be0079c531659141344cd1fd0a4f28419497f9722a3daafe3b4186f6b6457e09190a35050565b61049c806100a06000396000f3fe608060405234801561001057600080fd5b506004361061004c5760003560e01c806306bfa93814610051578063715018a6146100935780638da5cb5b1461009d578063f2fde38b146100b8575b600080fd5b61006461005f366004610367565b6100cb565b604080516001600160a01b03948516815292841660208401529216918101919091526060015b60405180910390f35b61009b610283565b005b6000546040516001600160a01b03909116815260200161008a565b61009b6100c6366004610367565b610297565b600080806001600160a01b0384166101425760405162461bcd60e51b815260206004820152602f60248201527f52657175657374656420706f6f6c20646f65736e277420657869737420696e2060448201526e07468652070616e63616b657377617608c1b60648201526084015b60405180910390fd5b836001600160a01b0316633850c7bd6040518163ffffffff1660e01b815260040160e060405180830381865afa158015610180573d6000803e3d6000fd5b505050506040513d601f19601f820116820180604052508101906101a491906103a2565b505060408051630dfe168160e01b815290519598506001600160a01b038a1695630dfe168195506004808301955060209450909250908290030181865afa1580156101f3573d6000803e3d6000fd5b505050506040513d601f19601f820116820180604052508101906102179190610449565b9150836001600160a01b031663d21220a76040518163ffffffff1660e01b8152600401602060405180830381865afa158015610257573d6000803e3d6000fd5b505050506040513d601f19601f8201168201806040525081019061027b9190610449565b929491935050565b61028b6102d5565b6102956000610302565b565b61029f6102d5565b6001600160a01b0381166102c957604051631e4fbdf760e01b815260006004820152602401610139565b6102d281610302565b50565b6000546001600160a01b031633146102955760405163118cdaa760e01b8152336004820152602401610139565b600080546001600160a01b038381166001600160a01b0319831681178455604051919092169283917f8be0079c531659141344cd1fd0a4f28419497f9722a3daafe3b4186f6b6457e09190a35050565b6001600160a01b03811681146102d257600080fd5b60006020828403121561037957600080fd5b813561038481610352565b9392505050565b805161ffff8116811461039d57600080fd5b919050565b600080600080600080600060e0888a0312156103bd57600080fd5b87516103c881610352565b8097505060208801518060020b81146103e057600080fd5b95506103ee6040890161038b565b94506103fc6060890161038b565b935061040a6080890161038b565b925060a088015163ffffffff8116811461042357600080fd5b60c0890151909250801515811461043957600080fd5b8091505092959891949750929550565b60006020828403121561045b57600080fd5b81516103848161035256fea26469706673582212209dff744437f6e3427b7977c1fe7b3eb9446e57a54d6ad72506657d2aec18f01d64736f6c634300081a0033","linkReferences":{}},"methodIdentifiers":{"getPoolInfo(address)":"06bfa938","owner()":"8da5cb5b","renounceOwnership()":"715018a6","transferOwnership(address)":"f2fde38b"},"id":1}